{"abi":[{"type":"function","name":"swapSingleHopExactAmountIn","inputs":[{"name":"tokenIn","type":"address","internalType":"address"},{"name":"tokenOut","type":"address","internalType":"address"},{"name":"amountIn","type":"uint256","internalType":"uint256"},{"name":"poolFee","type":"uint24","internalType":"uint24"}],"outputs":[{"name":"amountOut","type":"uint256","internalType":"uint256"}],"stateMutability":"nonpayable"}],"bytecode":{"object":"0x6080604052600080546001600160a01b03191673e592427a0aece92de3edee1f18e0157c0586156417905534801561003657600080fd5b50610334806100466000396000f3fe608060405234801561001057600080fd5b506004361061002b5760003560e01c80638253a15614610030575b600080fd5b61004361003e366004610265565b610055565b60405190815260200160405180910390f35b6040516323b872dd60e01b8152336004820152306024820152604481018390526000906001600160a01b038616906323b872dd906064016020604051808303816000875af11580156100ab573d6000803e3d6000fd5b505050506040513d601f19601f820116820180604052508101906100cf91906102bc565b5060005460405163095ea7b360e01b81526001600160a01b039182166004820152602481018590529086169063095ea7b3906044016020604051808303816000875af1158015610123573d6000803e3d6000fd5b505050506040513d601f19601f8201168201806040525081019061014791906102bc565b5060408051610100810182526001600160a01b0387811682528681166020830190815262ffffff8681168486019081523360608601908152426080870190815260a087018b8152600160c08901908152600060e08a0181815290549a5163414bf38960e01b81528a518a166004820152975189166024890152945190951660448701529151861660648601525160848501525160a4840152905160c483015251821660e48201529192169063414bf38990610104016020604051808303816000875af115801561021b573d6000803e3d6000fd5b505050506040513d601f19601f8201168201806040525081019061023f91906102e5565b9695505050505050565b80356001600160a01b038116811461026057600080fd5b919050565b6000806000806080858703121561027b57600080fd5b61028485610249565b935061029260208601610249565b925060408501359150606085013562ffffff811681146102b157600080fd5b939692955090935050565b6000602082840312156102ce57600080fd5b815180151581146102de57600080fd5b9392505050565b6000602082840312156102f757600080fd5b505191905056fea26469706673582212201bd7154c505c80942968a220b8d58930586f0f61eb27bb325d67902e25ee846e64736f6c63430008170033","linkReferences":{}},"methodIdentifiers":{"swapSingleHopExactAmountIn(address,address,uint256,uint24)":"8253a156"},"id":0}