{"abi":[{"type":"function","name":"swapMultiHopExactAmount","inputs":[{"name":"path","type":"bytes","internalType":"bytes"},{"name":"tokenIn","type":"address","internalType":"address"},{"name":"amountIn","type":"uint256","internalType":"uint256"}],"outputs":[{"name":"amountOut","type":"uint256","internalType":"uint256"}],"stateMutability":"nonpayable"},{"type":"function","name":"swapSingleHopExactAmountIn","inputs":[{"name":"tokenIn","type":"address","internalType":"address"},{"name":"tokenOut","type":"address","internalType":"address"},{"name":"poolFee","type":"uint24","internalType":"uint24"},{"name":"amountIn","type":"uint256","internalType":"uint256"}],"outputs":[{"name":"amountOut","type":"uint256","internalType":"uint256"}],"stateMutability":"nonpayable"}],"bytecode":{"object":"0x608060405234801561001057600080fd5b5061061f806100206000396000f3fe608060405234801561001057600080fd5b50600436106100365760003560e01c80636beca8a11461003b578063d99c095714610060575b600080fd5b61004e61004936600461043c565b610073565b60405190815260200160405180910390f35b61004e61006e3660046104c5565b610256565b6040516323b872dd60e01b8152336004820152306024820152604481018290526000906001600160a01b038416906323b872dd906064016020604051808303816000875af11580156100c9573d6000803e3d6000fd5b505050506040513d601f19601f820116820180604052508101906100ed919061051a565b5060405163095ea7b360e01b815273e592427a0aece92de3edee1f18e0157c058615646004820152602481018390526001600160a01b0384169063095ea7b3906044016020604051808303816000875af115801561014f573d6000803e3d6000fd5b505050506040513d601f19601f82011682018060405250810190610173919061051a565b506040805160c06020601f8801819004028201810190925260a081018681526000928291908990899081908501838280828437600092018290525093855250503360208401525042604080840191909152606083018790526080909201525163c04b8d5960e01b815290915073e592427a0aece92de3edee1f18e0157c058615649063c04b8d5990610209908490600401610543565b6020604051808303816000875af1158015610228573d6000803e3d6000fd5b505050506040513d601f19601f8201168201806040525081019061024c91906105d0565b9695505050505050565b6040516323b872dd60e01b8152336004820152306024820152604481018290526000906001600160a01b038616906323b872dd906064016020604051808303816000875af11580156102ac573d6000803e3d6000fd5b505050506040513d601f19601f820116820180604052508101906102d0919061051a565b5060405163095ea7b360e01b815273e592427a0aece92de3edee1f18e0157c058615646004820152602481018390526001600160a01b0386169063095ea7b3906044016020604051808303816000875af1158015610332573d6000803e3d6000fd5b505050506040513d601f19601f82011682018060405250810190610356919061051a565b5060408051610100810182526001600160a01b0387811682528681166020830190815262ffffff8781168486019081523360608601908152426080870190815260a087018a8152600060c0890181815260e08a01918252995163414bf38960e01b815289518916600482015296518816602488015293519094166044860152905185166064850152516084840152905160a4830152935160c482015292511660e48301529073e592427a0aece92de3edee1f18e0157c058615649063414bf3899061010401610209565b80356001600160a01b038116811461043757600080fd5b919050565b6000806000806060858703121561045257600080fd5b843567ffffffffffffffff8082111561046a57600080fd5b818701915087601f83011261047e57600080fd5b81358181111561048d57600080fd5b88602082850101111561049f57600080fd5b6020928301965094506104b59187019050610420565b9396929550929360400135925050565b600080600080608085870312156104db57600080fd5b6104e485610420565b93506104f260208601610420565b9250604085013562ffffff8116811461050a57600080fd5b9396929550929360600135925050565b60006020828403121561052c57600080fd5b8151801515811461053c57600080fd5b9392505050565b60006020808352835160a0602085015280518060c086015260005b8181101561057a5782810184015186820160e00152830161055e565b50600085820160e0015260208601516001600160a01b038116604087015292506040860151606086015260608601516080860152608086015160a086015260e0601f19601f830116860101935050505092915050565b6000602082840312156105e257600080fd5b505191905056fea2646970667358221220715a479213e9700a1f7555cfeb88ea23beac4064c05e89dcd35bc3236850e87a64736f6c63430008170033","linkReferences":{}},"methodIdentifiers":{"swapMultiHopExactAmount(bytes,address,uint256)":"6beca8a1","swapSingleHopExactAmountIn(address,address,uint24,uint256)":"d99c0957"},"id":20}